:020000040800F2
:100000000000022001AE0008DF900008E790000821
:10001000EF900008F7900008FF9000080000000033
:100020000000000000000000000000002182000825
:100030000791000800000000DD8100080D81000824
:1000400051AE000851AE000851AE000851AE000894
:1000500051AE000851AE000851AE000851AE000884
:1000600051AE000851AE000851AE000815910008CD
:1000700051AE000851AE000851AE000851AE000864
:1000800051AE000851AE000851AE000851AE000854
:1000900051AE000851AE000851AE000851AE000844
:1000A00051AE000851AE000851AE000851AE000834
:1000B0002591000851AE000851AE000851AE00086D
:1000C00051AE000851AE000851AE000851AE000814
:1000D00051AE000851AE000851AE000851AE000804
:1000E00051AE000851AE000851AE000851AE0008F4
:1000F00051AE000851AE000851AE000851AE0008E4
:1001000051AE000851AE000851AE000851AE0008D3
:1001100051AE000851AE000851AE000851AE0008C3
:1001200051AE000851AE000851AE000851AE0008B3
:1001300051AE000851AE000851AE000851AE0008A3
:1001400051AE000851AE000851AE000851AE000893
:1001500051AE000851AE000851AE000851AE000883
:1001600051AE000851AE000851AE000851AE000873
:1001700051AE000851AE000851AE000851AE000863
:1001800051AE000851AE000851AE000851AE000853
:1001900051AE00080000000051AE000851AE00084A
:1001A00051AE000851AE000851AE00088128000889
:1001B00051AE000851AE000851AE000851AE000823
:1001C00051AE000851AE000851AE000851AE000813
:0801D00051AE000851AE000819
:1001D80081F0004102E000BF83F0004330B54FEAF0
:1001E80041044FEA430594EA050F08BF90EA020F5D
:1001F8001FBF54EA000C55EA020C7FEA645C7FEAF0
:10020800655C00F0E2804FEA5454D4EB5555B8BF12
:100218006D420CDD2C4480EA020281EA030382EA83
:10022800000083EA010180EA020281EA0303362D15
:1002380088BF30BD11F0004F4FEA01314FF4801CE8
:100248004CEA113102D0404261EB410113F0004FFA
:100258004FEA03334CEA133302D0524263EB4303B1
:1002680094EA050F00F0A780A4F10104D5F1200E4F
:100278000DDB02FA0EFC22FA05F2801841F10001AA
:1002880003FA0EF2801843FA05F359410EE0A5F17E
:1002980020050EF1200E012A03FA0EFC28BF4CF0AF
:1002A800020C43FA05F3C01851EBE37101F0004565
:1002B80007D54FF0000EDCF1000C7EEB00006EEB72
:1002C8000101B1F5801F1BD3B1F5001F0CD34908FC
:1002D8005FEA30004FEA3C0C04F101044FEA445253
:1002E80012F5800F80F09A80BCF1004F08BF5FEADA
:1002F800500C50F1000041EB045141EA050130BDBA
:100308005FEA4C0C404141EB0101013C28BFB1F5CB
:10031800801FE9D291F0000F04BF01460020B1FA16
:1003280081F308BF2033A3F10B03B3F120020CDAE9
:100338000C3208DD02F1140CC2F10C0201FA0CF0C7
:1003480021FA02F10CE002F11402D8BFC2F1200C2C
:1003580001FA02F120FA0CFCDCBF41EA0C019040E2
:10036800E41AA2BF01EB0451294330BD6FEA04042B
:100378001F3C1CDA0C340EDC04F11404C4F1200216
:1003880020FA04F001FA02F340EA030021FA04F328
:1003980045EA030130BDC4F10C04C4F1200220FA7F
:1003A80002F001FA04F340EA0300294630BD21FABD
:1003B80004F0294630BD94F0000F83F4801306BF83
:1003C80081F480110134013D4EE77FEA645C18BF77
:1003D8007FEA655C29D094EA050F08BF90EA020F0E
:1003E80005D054EA000C04BF1946104630BD91EA06
:1003F800030F1EBF0021002030BD5FEA545C05D109
:100408004000494128BF41F0004130BD14F5800447
:100418003CBF01F5801130BD01F0004545F0FE41BB
:1004280041F470014FF0000030BD7FEA645C1ABFF0
:10043800194610467FEA655C1CBF0B46024650EA27
:10044800013406BF52EA033591EA030F41F4002153
:1004580030BD00BF90F0000F04BF0021704730B5D9
:100468004FF4806404F132044FF000054FF00001AE
:1004780050E700BF90F0000F04BF0021704730B56F
:100488004FF4806404F1320410F0004548BF404244
:100498004FF000013EE700BF42004FEAE2014FEA99
:1004A80031014FEA02701FBF12F07F4393F07F4F74
:1004B80081F06051704732F07F4208BF704793F077
:1004C8007F4F04BF41F40021704730B54FF460748A
:1004D80001F0004521F000411CE700BF50EA01028D
:1004E80008BF704730B54FF000050AE050EA010236
:1004F80008BF704730B511F0004502D5404261EBA6
:1005080041014FF4806404F132045FEA915C3FF4E6
:10051800D8AE4FF003025FEADC0C18BF03325FEA83
:10052800DC0C18BF033202EBDC02C2F1200300FA34
:1005380003FC20FA02F001FA03FE40EA0E0021FA59
:1005480002F11444BDE600BF70B54FF0FF0C4CF447
:10055800E06C1CEA11541DBF1CEA135594EA0C0FF9
:1005680095EA0C0F00F0DEF82C4481EA030621EA34
:100578004C5123EA4C5350EA013518BF52EA03356F
:1005880041F4801143F4801338D0A0FB02CE4FF021
:100598000005E1FB02E506F00042E0FB03E54FF051
:1005A8000006E1FB03569CF0000F18BF4EF0010E49
:1005B800A4F1FF04B6F5007F64F5407404D25FEA45
:1005C8004E0E6D4146EB060642EAC62141EA5551F8
:1005D8004FEAC52040EA5E504FEACE2EB4F1FD0C3A
:1005E80088BFBCF5E06F1ED8BEF1004F08BF5FEAB8
:1005F800500E50F1000041EB045170BD06F000466A
:1006080046EA010140EA020081EA0301B4EB5C0416
:10061800C2BFD4EB0C0541EA045170BD41F480110E
:100628004FF0000E013C00F3AB8014F1360FDEBF33
:10063800002001F0004170BDC4F10004203C35DA0F
:100648000C341BDC04F11404C4F1200500FA05F392
:1006580020FA04F001FA05F240EA020001F0004233
:1006680021F0004110EBD37021FA04F642EB0601A9
:100678005EEA430E08BF20EAD37070BDC4F10C04D3
:10068800C4F1200500FA04F320FA05F001FA04F297
:1006980040EA020001F0004110EBD37041F1000183
:1006A8005EEA430E08BF20EAD37070BDC4F120058E
:1006B80000FA05F24EEA020E20FA04F301FA05F2F6
:1006C80043EA020321FA04F001F0004121FA04F29E
:1006D80020EA020000EBD3705EEA430E08BF20EA6E
:1006E800D37070BD94F0000F0FD101F000464000A8
:1006F80041EB010111F4801F08BF013CF7D041EA2A
:10070800060195F0000F18BF704703F0004652002D
:1007180043EB030313F4801F08BF013DF7D043EAFE
:100728000603704794EA0C0F0CEA135518BF95EAB4
:100738000C0F0CD050EA410618BF52EA4306D1D13B
:1007480081EA030101F000414FF0000070BD50EA5A
:10075800410606BF1046194652EA430619D094EAE4
:100768000C0F02D150EA013613D195EA0C0F05D1CE
:1007780052EA03361CBF104619460AD181EA030122
:1007880001F0004141F0FE4141F470014FF00000DA
:1007980070BD41F0FE4141F4780170BD70B54FF075
:1007A800FF0C4CF4E06C1CEA11541DBF1CEA1355F5
:1007B80094EA0C0F95EA0C0F00F0A7F8A4EB0504D7
:1007C80081EA030E52EA03354FEA013100F08880CE
:1007D8004FEA03334FF0805545EA131343EA126397
:1007E8004FEA022245EA111545EA10654FEA00264C
:1007F8000EF000419D4208BF964244F1FD0404F505
:10080800407402D25B084FEA3202B61A65EB030560
:100818005B084FEA32024FF480104FF4002CB6EB1D
:10082800020E75EB030E22BFB61A754640EA0C009D
:100838005B084FEA3202B6EB020E75EB030E22BFDD
:10084800B61A754640EA5C005B084FEA3202B6EB1E
:10085800020E75EB030E22BFB61A754640EA9C00DD
:100868005B084FEA3202B6EB020E75EB030E22BFAD
:10087800B61A754640EADC0055EA060E18D04FEA6B
:10088800051545EA16754FEA06164FEAC30343EA0B
:1008980052734FEAC2025FEA1C1CC0D111F4801FD8
:1008A8000BD141EA00014FF000004FF0004CB6E7D1
:1008B80011F4801F04BF01430020B4F1FD0C88BF70
:1008C800BCF5E06F3FF6AFAEB5EB030C04BFB6EB7B
:1008D800020C5FEA500C50F1000041EB045170BD6E
:1008E8000EF0004E4EEA113114EB5C04C2BFD4EB9B
:1008F8000C0541EA045170BD41F480114FF0000E1F
:10090800013C90E645EA060E8DE60CEA135594EA9A
:100918000C0F08BF95EA0C0F3FF43BAF94EA0C0F9D
:100928000AD150EA01347FF434AF95EA0C0F7FF412
:1009380025AF104619462CE795EA0C0F06D152EA66
:1009480003353FF4FDAE1046194622E750EA41064A
:1009580018BF52EA43067FF4C5AE50EA41047FF45B
:100968000DAF52EA43057FF4EBAE12E74FF0FF3CC0
:1009780006E000BF4FF0010C02E000BF4FF0010C91
:100988004DF804CD4FEA410C7FEA6C5C4FEA430C0A
:1009980018BF7FEA6C5C1BD001B050EA410C0CBF59
:1009A80052EA430C91EA030F02BF90EA020F0020BB
:1009B800704710F1000F91EA030F58BF994208BF22
:1009C80090422CBFD8176FEAE37040F001007047DF
:1009D8004FEA410C7FEA6C5C02D150EA013C07D136
:1009E8004FEA430C7FEA6C5CD6D152EA033CD3D081
:1009F8005DF8040B704700BF8446104662468C467B
:100A08001946634600E000BF01B5FFF7B7FF0028AD
:100A180048BF10F1000F01BD4DF808EDFFF7F4FFD6
:100A28000CBF012000205DF808FB00BF4DF808ED61
:100A3800FFF7EAFF34BF012000205DF808FB00BF84
:100A48004DF808EDFFF7E0FF94BF012000205DF8A6
:100A580008FB00BF4DF808EDFFF7CEFF94BF01205B
:100A680000205DF808FB00BF4DF808EDFFF7C4FF54
:100A780034BF012000205DF808FB00BF4FEA410C9D
:100A88007FEA6C5C02D150EA013C0AD14FEA430C80
:100A98007FEA6C5C02D152EA033C02D14FF00000BD
:100AA80070474FF0010070474FEA410212F50012FB
:100AB80015D211D56FF47873B3EB625212D94FEA9D
:100AC800C12343F0004343EA505311F0004F23FA87
:100AD80002F018BF404270474FF00000704750EADC
:100AE800013005D111F0004008BF6FF00040704799
:100AF8004FF00000704700BF4A0011D212F50012F3
:100B080011D20DD56FF47873B3EB62520ED44FEA5D
:100B1800C12343F0004343EA505323FA02F07047DD
:100B28004FF00000704750EA013002D14FF0FF301B
:100B380070474FF00000704753B94AB9002908BF01
:100B480000281CBF4FF0FF314FF0FF3000F00CB809
:100B5800ADF1080C6DE904CE0AF038FCDDF804E0CC
:100B6800DDE9022304B07047704700BF034613F85D
:100B7800012B002AFBD1181A013870470348044B8F
:100B8800834202D0034B03B118477047640000202A
:100B980064000020000000000548064B1B1AD90F0E
:100BA80001EBA301491002D0034B03B1184770476A
:100BB80064000020640000200000000010B5064C0E
:100BC800237843B9FFF7DAFF044B13B10448AFF3B6
:100BD80000800123237010BD680000200000000081
:100BE8006CB9000808B5054B1BB105490548AFF3BA
:100BF8000080BDE80840FFF7CFBF00BF000000003D
:100C08006C0000206CB9000880B485B000AF786033
:100C18007B681B6803F06003FB60FB68002B04D152
:100C28007B681B6803F01003FB60FB6818461437E9
:100C3800BD465DF8047B704780B483B000AF786030
:100C48007B681B6B18460C37BD465DF8047B704704
:100C580080B483B000AF786039607B681A6A3B68FB
:100C68001A437B681A6200BF0C37BD465DF8047BE7
:100C7800704780B483B000AF786039607B681A6AC7
:100C88003B68DB431A407B681A6200BF0C37BD46DD
:100C98005DF8047B704780B483B000AF78607B68F0
:100CA8005B6C43F400427B685A6400BF0C37BD4656
:100CB8005DF8047B704780B483B000AF78607B68D0
:100CC800DB6843F001027B68DA6000BF0C37BD4681
:100CD8005DF8047B704780B483B000AF78607B68B0
:100CE800DB6823F001027B68DA6000BF0C37BD4681
:100CF8005DF8047B704780B483B000AF78607B6890
:100D0800DB6803F00103012B01D1012300E000237C
:100D180018460C37BD465DF8047B704780B483B035
:100D280000AF78607B68DB6843F002027B68DA60BA
:100D380000BF0C37BD465DF8047B704780B483B0B4
:100D480000AF78607B68DB6823F002027B68DA60BA
:100D580000BF0C37BD465DF8047B704780B483B094
:100D680000AF78607B68DB6803F00203022B01D1D7
:100D7800012300E0002318460C37BD465DF8047BCC
:100D8800704780B483B000AF78607B68DB6843F05D
:100D980004027B68DA6000BF0C37BD465DF8047B4F
:100DA800704780B483B000AF78607B68DB6823F05D
:100DB80004027B68DA6000BF0C37BD465DF8047B2F
:100DC800704780B483B000AF78607B68DB6803F05D
:100DD8000403042B01D1012300E0002318460C373B
:100DE800BD465DF8047B704780B483B000AF78607F
:100DF8007B68DB6843F008027B68DA6000BF0C3769
:100E0800BD465DF8047B704780B483B000AF78605E
:100E18007B68DB6823F008027B68DA6000BF0C3768
:100E2800BD465DF8047B704780B483B000AF78603E
:100E38007B68DB6803F00803082B01D1012300E07D
:100E4800002318460C37BD465DF8047B704780B414
:100E580083B000AF78607B68DB6843F010027B6882
:100E6800DA6000BF0C37BD465DF8047B704780B47C
:100E780083B000AF78607B68DB6823F010027B6882
:100E8800DA6000BF0C37BD465DF8047B704780B45C
:100E980083B000AF78607B68DB6803F01003102B29
:100EA80001D1012300E0002318460C37BD465DF848
:100EB800047B704780B483B000AF78607B68DB68E0
:100EC80043F020027B68DA6000BF0C37BD465DF84E
:100ED800047B704780B483B000AF78607B68DB68C0
:100EE80023F020027B68DA6000BF0C37BD465DF84E
:100EF800047B704780B483B000AF78607B68DB68A0
:100F080003F02003202B01D1012300E00023184621
:100F18000C37BD465DF8047B704780B483B000AFE2
:100F280078607B68DB6843F040027B68DA6000BF6A
:100F38000C37BD465DF8047B704780B483B000AFC2
:100F480078607B68DB6823F040027B68DA6000BF6A
:100F58000C37BD465DF8047B704780B483B000AFA2
:100F680078607B68DB6803F04003402B01D10123E4
:100F780000E0002318460C37BD465DF8047B704737
:100F880080B483B000AF78607B68DB6843F0800290
:100F98007B68DA6000BF0C37BD465DF8047B70479C
:100FA80080B483B000AF78607B68DB6823F0800290
:100FB8007B68DA6000BF0C37BD465DF8047B70477C
:100FC80080B483B000AF78607B68DB6803F080038F
:100FD800802B01D1012300E0002318460C37BD46C1
:100FE8005DF8047B704780B483B000AF78607B689D
:100FF800DB6843F400027B68DA6000BF0C37BD464B
:101008005DF8047B704780B483B000AF78607B687C
:10101800DB6823F400027B68DA6000BF0C37BD464A
:101028005DF8047B704780B483B000AF78607B685C
:10103800DB6803F40003B3F5000F01D1012300E0DE
:10104800002318460C37BD465DF8047B704780B412
:1010580083B000AF78607B68DB6843F480027B680C
:10106800DA6000BF0C37BD465DF8047B704780B47A
:1010780083B000AF78607B68DB6823F480027B680C
:10108800DA6000BF0C37BD465DF8047B704780B45A
:1010980083B000AF78607B68DB6803F48003B3F546
:1010A800800F01D1012300E0002318460C37BD460C
:1010B8005DF8047B704780B483B000AF78607B68CC
:1010C800DB6843F400127B68DA6000BF0C37BD466A
:1010D8005DF8047B704780B483B000AF78607B68AC
:1010E800DB6823F400127B68DA6000BF0C37BD466A
:1010F8005DF8047B704780B483B000AF78607B688C
:10110800DB6803F40013B3F5001F01D1012300E0ED
:10111800002318460C37BD465DF8047B704780B441
:1011280083B000AF78607B68DB6843F480127B682B
:10113800DA6000BF0C37BD465DF8047B704780B4A9
:1011480083B000AF78607B68DB6823F480127B682B
:10115800DA6000BF0C37BD465DF8047B704780B489
:1011680083B000AF78607B68DB6803F48013B3F565
:10117800801F01D1012300E0002318460C37BD462B
:101188005DF8047B704780B582B000AF78600B468D
:101198007B807B8803F00103002B0CD07B681B68E5
:1011A8001846FFF7DAFE0346012B04D07B681B685C
:1011B8001846FFF7B2FE7B8803F00203002B0CD021
:1011C8007B681B681846FFF7C9FD0346012B04D04E
:1011D8007B681B681846FFF7A1FD7B8803F00403B2
:1011E800002B0CD07B681B681846FFF7EAFD034606
:1011F800012B04D07B681B681846FFF7C2FD7B886B
:1012080003F00803002B0CD07B681B681846FFF717
:101218000BFE0346012B04D07B681B681846FFF7BA
:10122800E3FD7B8803F01003002B0CD07B681B6860
:101238001846FFF72CFE0346012B04D07B681B6879
:101248001846FFF704FE7B8803F02003002B0CD020
:101258007B681B681846FFF74EFD0346012B04D038
:101268007B681B681846FFF726FD7B8803F0400360
:10127800002B0CD07B681B681846FFF7A1FE0346BD
:10128800012B04D07B681B681846FFF779FE7B8822
:1012980003F08003002B0CD07B681B681846FFF70F
:1012A80029FE0346012B04D07B681B681846FFF70C
:1012B80001FE7B8803F48073002B0CD07B681B68CD
:1012C8001846FFF74CFF0346012B04D07B681B68C8
:1012D8001846FFF724FF7B8803F40073002B0CD01B
:1012E8007B681B681846FFF706FF0346012B04D0EE
:1012F8007B681B681846FFF7DEFE7B8803F4806373
:10130800002B0CD07B681B681846FFF78CFE034641
:10131800012B04D07B681B681846FFF764FE7B88A6
:1013280003F40063002B0CD07B681B681846FFF79A
:10133800AEFE0346012B04D07B681B681846FFF7F6
:1013480086FE00BF0837BD4680BD80B582B000AFBD
:1013580078600B467B807B8803F00103002B0CD060
:101368007B681B681846FFF7F8FD0346012B04D17C
:101378007B681B681846FFF7E0FD7B8803F00203D3
:10138800002B0CD07B681B681846FFF7E7FC034668
:10139800012B04D17B681B681846FFF7CFFC7B88BC
:1013A80003F00403002B0CD07B681B681846FFF77A
:1013B80008FD0346012B04D17B681B681846FFF71C
:1013C800F0FC7B8803F00803002B0CD07B681B68BB
:1013D8001846FFF729FD0346012B04D17B681B68DB
:1013E8001846FFF711FD7B8803F01003002B0CD083
:1013F8007B681B681846FFF74AFD0346012B04D19A
:101408007B681B681846FFF732FD7B8803F02003D2
:10141800002B0CD07B681B681846FFF76CFC034652
:10142800012B04D07B681B681846FFF754FC7B88A7
:1014380003F04003002B0CD07B681B681846FFF7AD
:10144800BFFD0346012B04D17B681B681846FFF7D4
:10145800A7FD7B8803F08003002B0CD07B681B68FA
:101468001846FFF747FD0346012B04D17B681B682C
:101478001846FFF72FFD7B8803F48073002B0CD0F0
:101488007B681B681846FFF76AFE0346012B04D1E8
:101498007B681B681846FFF752FE7B8803F40073CD
:1014A800002B0CD07B681B681846FFF724FE034608
:1014B800012B04D17B681B681846FFF70CFE7B885C
:1014C80003F48063002B0CD07B681B681846FFF779
:1014D800AAFD0346012B04D17B681B681846FFF759
:1014E80092FD7B8803F40063002B0CD07B681B689B
:1014F8001846FFF7CCFD0346012B04D17B681B6817
:101508001846FFF7B4FD00BF0837BD4680BD000090
:1015180080B582B000AF78600B46FB70FB78022B79
:1015280006D17B681B6801211846FFF791FB36E05E
:101538007B681B681C4A934218D07B681B681B4A4F
:10154800934213D07B681B68194A93420ED07B687C
:101558001B68184A934209D07B681B68164A934255
:1015680004D07B681B68154A934218D1FB78032B7B
:1015780006D17B681B6804211846FFF769FB0EE05B
:10158800FB78042B0BD17B681B6801211846FFF7F9
:101598005FFB7B681B6804211846FFF759FB00BFF7
:1015A8000837BD4680BD00BF002C01400034014013
:1015B8000040014000440140004801400050014003
:1015C80080B582B000AF78600B46FB70FB78022BC9
:1015D80006D17B681B6801211846FFF74AFB36E0F5
:1015E8007B681B681C4A934218D07B681B681B4A9F
:1015F800934213D07B681B68194A93420ED07B68CC
:101608001B68184A934209D07B681B68164A9342A4
:1016180004D07B681B68154A934218D1FB78032BCA
:1016280006D17B681B6804211846FFF722FB0EE0F1
:10163800FB78042B0BD17B681B6801211846FFF748
:1016480018FB7B681B6804211846FFF712FB00BFD4
:101658000837BD4680BD00BF002C01400034014062
:101668000040014000440140004801400050014052
:1016780080B582B000AF78600B46FB70FB78022B18
:1016880006D17B681B6810211846FFF7E1FA36E09F
:101698007B681B681C4A934218D07B681B681B4AEE
:1016A800934213D07B681B68194A93420ED07B681B
:1016B8001B68184A934209D07B681B68164A9342F4
:1016C80004D07B681B68154A934218D1FB78032B1A
:1016D80006D17B681B6840211846FFF7B9FA0EE06F
:1016E800FB78042B0BD17B681B6810211846FFF789
:1016F800AFFA7B681B6840211846FFF7A9FA00BFBC
:101708000837BD4680BD00BF002C014000340140B1
:1017180000400140004401400048014000500140A1
:1017280080B582B000AF78600B46FB70FB78022B67
:1017380006D17B681B6810211846FFF79AFA36E035
:101748007B681B681C4A934218D07B681B681B4A3D
:10175800934213D07B681B68194A93420ED07B686A
:101768001B68184A934209D07B681B68164A934243
:1017780004D07B681B68154A934218D1FB78032B69
:1017880006D17B681B6840211846FFF772FA0EE005
:10179800FB78042B0BD17B681B6810211846FFF7D8
:1017A80068FA7B681B6840211846FFF762FA00BF99
:1017B8000837BD4680BD00BF002C01400034014001
:1017C80000400140004401400048014000500140F1
:1017D80080B582B000AF78600B46FB70FB78022BB7
:1017E80007D17B681B684FF480511846FFF730FA21
:1017F80039E07B681B681E4A934218D07B681B68D7
:101808001C4A934213D07B681B681B4A93420ED034
:101818007B681B68194A934209D07B681B68184A81
:10182800934204D07B681B68164A93421BD1FB780D
:10183800032B07D17B681B684FF480411846FFF7DC
:1018480007FA10E0FB78042B0DD17B681B684FF476
:1018580080511846FFF7FCF97B681B684FF48041FC
:101868001846FFF7F5F900BF0837BD4680BD00BF31
:10187800002C014000340140004001400044014078
:10188800004801400050014080B582B000AF786048
:101898000B46FB70FB78022B07D17B681B684FF463
:1018A80080511846FFF7E5F939E07B681B681E4A46
:1018B800934218D07B681B681C4A934213D07B68FC
:1018C8001B681B4A93420ED07B681B68194A9342D7
:1018D80009D07B681B68184A934204D07B681B6850
:1018E800164A93421BD1FB78032B07D17B681B68F0
:1018F8004FF480411846FFF7BCF910E0FB78042B41
:101908000DD17B681B684FF480511846FFF7B1F979
:101918007B681B684FF480411846FFF7AAF900BF9F
:101928000837BD4680BD00BF002C0140003401408F
:10193800004001400044014000480140005001407F
:1019480080B584B000AF78600023FB607B681B68BB
:101958003C4A934202D13C4BFB6006E07B681B6823
:101968003A4A934201D13A4BFB607B681A68FB689C
:101978001A60FB681B681846FFF746F9B860BB6831
:10198800002B06D0BB68102B03D0FB6801221A710C
:1019980002E0FB6800221A71FB681B682D4A93421B
:1019A80018D0FB681B682C4A934213D0FB681B684D
:1019B8002A4A93420ED0FB681B68294A934209D0F1
:1019C800FB681B68274A934204D0FB681B68264AB9
:1019D800934204D1FB681B681846FFF75CF9FB6863
:1019E8001B681C4A934218D0FB681B681A4A93422A
:1019F80013D0FB681B68194A93420ED0FB681B681A
:101A0800174A934209D0FB681B68164A934204D0D0
:101A1800FB681B68144A934208D17B681B68184608
:101A2800FFF70AF90346DAB2FB685A71FB6800222D
:101A38009A71FB680022DA71FB6818461037BD46B8
:101A480080BD00BF00040040840000200008004062
:101A580010010020002C01400034014000400140EA
:101A680000440140004801400050014080B485B066
:101A780000AF786039603B68FB603B68B3F5803F36
:101A88000CD37B681B68B3F1804F07D07B681B6859
:101A9800064A934202D04FF6FF73FB60FB68184674
:101AA8001437BD465DF8047B704700BF000C00404A
:101AB80080B485B000AF786039607B68FB60074A06
:101AC8003B6813441B781A46FB6813445B689BB257
:101AD80018461437BD465DF8047B70478CB900087A
:101AE80080B485B000AF786039607B685B6B3A681A
:101AF8001344FB607B685A6B7B689B6B9A4204D2E9
:101B08007B689B6BFA689A4212D27B685A6B7B6837
:101B18009B6B9A420ED37B689B6AFA689A4209D3F8
:101B28007B689B6AFA68D21A7B689B6B9A4201D3DE
:101B3800012300E00023DBB218461437BD465DF8E8
:101B4800047B704780B586B000AFF860B9607A60F2
:101B58003B607968F868FFF7C3FF0346002B21D084
:101B68003B68002B1CD007F0B5FF786100BF79688F
:101B7800F868FFF7B5FF0346002B07D00121786905
:101B880006F03AFA02463B689342F0D2012178699E
:101B980006F032FA02463B68934203D2012347E03B
:101BA800012345E0FB685A6B7B681A44FB689B6A13
:101BB8009A4223D9FB689A6AFB685B6BD31A3B612C
:101BC800FB681A6AFB685B6B13443A69B968184684
:101BD80009F070FEFB685A6B7B681A44FB689B6AC5
:101BE800D21AFB685A63FB68186A3B69BA68D1184D
:101BF800FB685B6B1A4609F05DFE0FE0FB681A6A2A
:101C0800FB685B6B13447A68B968184609F052FEA2
:101C1800FB685A6B7B681A44FB685A63FB685A6B0B
:101C2800FB689B6A9A4202D1FB6800225A63002330
:101C380018461837BD4680BD80B586B000AF7860BD
:101C48007B6893F83C30FB737B689B7D03F004034F
:101C5800002B03D07B681B6B7B610DE07B685A68A7
:101C68007B681B7C19461046FFF722FFB8607B682B
:101C78005A6ABB68D31A7B617B685B6A7A699A4245
:101C880001D100237B61FB7B012B14D17B689B7DF9
:101C980003F01003002B0ED07B68DB6A7A699A4246
:101CA80009D97B681B8B43F020039AB27B681A839F
:101CB8007B687A69DA627B68DB6A7A699A4205D955
:101CC8007B68DB6A7A69D31A3B6116E07B68DB6A5A
:101CD8007A699A4208D27B685A6A7B68DB6AD31AA7
:101CE8007A6913443B6108E0FB7B012B03D17B68D5
:101CF8005B6A3B6101E000233B613B69184618378A
:101D0800BD4680BD80B588B000AFF860B9607A6024
:101D18000023BB61F868FFF78FFF0246BB68934258
:101D280015D97B68002B12D007F0D4FE786100BF6C
:101D3800F868FFF781FF0246BB68934207D9012183
:101D4800786906F059F902467B689342F0D2F86840
:101D5800FFF772FFB861BA69BB689A4202D2BB69E1
:101D6800FB6101E0BB68FB61FB6918462037BD4693
:101D780080BD000080B586B000AFF860B9607A60B9
:101D88003B603B6800221A600023FB82FB68DA6A2A
:101D98007B681A44FB685B6A9A4227D9FB685A6ACF
:101DA800FB68DB6AD31A3B61FB68DA69FB68DB6AAC
:101DB80013443A691946B86809F07CFDFB68DA6A89
:101DC8007B681A44FB685B6AD21AFB68DA623B6973
:101DD800BA68D018FB68D969FB68DB6A1A4609F04B
:101DE80069FDFB68002283F83C200FE0FB68DA6994
:101DF800FB68DB6A13447A681946B86809F05AFD2B
:101E0800FB68DA6A7B681A44FB68DA62FB68DA6A9C
:101E1800FB685B6A9A4206D1FB680022DA62FB68BB
:101E2800002283F83C20FB681B68084A934204D1CF
:101E3800F86800F0C1FD0346FB823B687A681A60C7
:101E4800FB8A18461837BD4680BD00BF0080004099
:101E580080B400AF044BDB681B0A03F00703184685
:101E6800BD465DF8047B704700ED00E080B483B0A8
:101E780000AF0346FB7197F90730002B0BDBFB79AA
:101E880003F01F02074997F907305B09012000FAA0
:101E980002F241F8232000BF0C37BD465DF8047BF1
:101EA800704700BF00E100E080B483B000AF034694
:101EB8003960FB7197F90730002B0ADB3B68DAB20F
:101EC8000C4997F907301201D2B20B4483F800236A
:101ED8000AE03B68DAB20849FB7903F00F03043BD8
:101EE8001201D2B20B441A7600BF0C37BD465DF81A
:101EF800047B704700E100E000ED00E080B489B0A9
:101F080000AFF860B9607A60FB6803F00703FB6113
:101F1800FB69C3F10703042B28BF0423BB61FB69DA
:101F28000433062B02D9FB69033B00E000237B61E5
:101F38004FF0FF32BB6902FA03F3DA43BB681A4079
:101F48007B699A404FF0FF317B6901FA03F3D9436B
:101F58007B680B40134318462437BD465DF8047B65
:101F68007047000080B485B000AF786039607B6846
:101F7800FB600C4A3B6813441B781A46FB68134401
:101F88001B6808493A680A4412781146FA680A44F4
:101F980043F00103136000BF1437BD465DF8047BAE
:101FA800704700BF94B9000880B487B000AFF860EC
:101FB800B9607A60FB687B610D4ABB6813441B7883
:101FC8001A467B6913445B681B0C1B040849BA68F2
:101FD8000A44127811467A690A4411467A6813430A
:101FE8004B6000BF1C37BD465DF8047B704700BFDF
:101FF80094B9000880B487B000AFF860B9607A601F
:102008003B60FB687B613B6A102B14D1174ABB68A5
:1020180013441B781A467B6913441A467B68D360BD
:10202800124ABB6813441B781A467B6913441A4644
:102038003B68936013E00D4ABB6813441B781A464B
:102048007B6913441A467B689360084ABB6813444B
:102058001B781A467B6913441A463B68D36000BF55
:102068001C37BD465DF8047B704700BF94B9000873
:1020780080B485B000AF786039607B68FB600C4A3B
:102088003B6813441B781A46FB6813441B680849CD
:102098003A680A4412781146FA680A4443F002037F
:1020A800136000BF1437BD465DF8047B704700BF5E
:1020B80094B9000880B485B000AF786039607B6857
:1020C800FB600C4A3B6813441B781A46FB681344B0
:1020D8001B6808493A680A4412781146FA680A44A3
:1020E80023F00203136000BF1437BD465DF8047B7C
:1020F800704700BF94B9000880B483B000AF78601F
:102108007B681B6843F001027B681A6000BF0C37CC
:10211800BD465DF8047B704780B483B000AF78603B
:102128007B681B6823F001027B681A6000BF0C37CC
:10213800BD465DF8047B704780B483B000AF78601B
:102148007B681B6803F00103012B01D1012300E028
:10215800002318460C37BD465DF8047B704780B4F1
:1021680083B000AF78607B68DB6903F00103012B63
:1021780001D1012300E0002318460C37BD465DF865
:10218800047B704780B483B000AF78607B68DB69FC
:1021980003F00203022B01D1012300E000231846BB
:1021A8000C37BD465DF8047B704780B483B000AF40
:1021B80078607B68DB6903F00403042B01D10123F9
:1021C80000E0002318460C37BD465DF8047B7047D5
:1021D80080B483B000AF78607B68DB6903F00803E4
:1021E800082B01D1012300E0002318460C37BD4617
:1021F8005DF8047B704780B483B000AF78607B687B
:10220800DB6903F02003202B01D1012300E0002328
:1022180018460C37BD465DF8047B704780B483B020
:1022280000AF78607B68DB6903F08003802B01D105
:10223800012300E0002318460C37BD465DF8047BF7
:10224800704780B483B000AF78607B6801221A625F
:1022580000BF0C37BD465DF8047B704780B483B07F
:1022680000AF78607B6802221A6200BF0C37BD4657
:102278005DF8047B704780B483B000AF78607B68FA
:1022880004221A6200BF0C37BD465DF8047B704714
:1022980080B483B000AF78607B6808221A6200BF00
:1022A8000C37BD465DF8047B704780B489B000AF39
:1022B80078607B68FB60FB6853E8003FBB60BB68E5
:1022C80043F02003FB617B68FA69BA617B61796935
:1022D800BA6941E800233B613B69002BE9D100BFA3
:1022E80000BF2437BD465DF8047B704780B489B0D1
:1022F80000AF78607B68FB60FB6853E8003FBB6019
:10230800BB6843F08003FB617B68FA69BA617B6153
:102318007969BA6941E800233B613B69002BE9D13F
:1023280000BF00BF2437BD465DF8047B704780B40A
:1023380089B000AF78607B68FB60FB6853E8003FBA
:10234800BB60BB6843F48073FB617B68FA69BA6160
:102358007B617969BA6941E800233B613B69002BDD
:10236800E9D100BF00BF2437BD465DF8047B704744
:1023780080B489B000AF78607B680833FB60FB6885
:1023880053E8003FBB60BB6843F00103FB617B6817
:102398000833FA69BA617B617969BA6941E800234F
:1023A8003B613B69002BE7D100BF00BF2437BD4626
:1023B8005DF8047B704780B489B000AF78607B68B3
:1023C800FB60FB6853E8003FBB60BB6823F0200359
:1023D800FB617B68FA69BA617B617969BA6941E82E
:1023E80000233B613B69002BE9D100BF00BF2437C4
:1023F800BD465DF8047B704780B489B000AF786053
:102408007B68FB60FB6853E8003FBB60BB6823F058
:102418008003FB617B68FA69BA617B617969BA6993
:1024280041E800233B613B69002BE9D100BF00BFB5
:102438002437BD465DF8047B704780B489B000AF8F
:1024480078607B68FB60FB6853E8003FBB60BB6853
:1024580023F48073FB617B68FA69BA617B617969EF
:10246800BA6941E800233B613B69002BE9D100BF11
:1024780000BF2437BD465DF8047B704780B489B03F
:1024880000AF78607B680833FB60FB6853E8003F67
:10249800BB60BB6823F00103FB617B680833FA6902
:1024A800BA617B617969BA6941E800233B613B699C
:1024B800002BE7D100BF00BF2437BD465DF8047B81
:1024C800704780B489B000AF78607B680833FB60E0
:1024D800FB6853E8003FBB60BB6843F04003FB6107
:1024E8007B680833FA69BA617B617969BA6941E83E
:1024F80000233B613B69002BE7D100BF00BF2437B5
:10250800BD465DF8047B704780B489B000AF786041
:102518007B680833FB60FB6853E8003FBB60BB681F
:1025280023F04003FB617B680833FA69BA617B6179
:102538007969BA6941E800233B613B69002BE7D11F
:1025480000BF00BF2437BD465DF8047B704780B4E8
:1025580089B000AF78607B680833FB60FB6853E89C
:10256800003FBB60BB6843F08003FB617B680833B6
:10257800FA69BA617B617969BA6941E800233B610C
:102588003B69002BE7D100BF00BF2437BD465DF88B
:10259800047B704780B489B000AF78607B680833EB
:1025A800FB60FB6853E8003FBB60BB6823F0800317
:1025B800FB617B680833FA69BA617B617969BA693A
:1025C80041E800233B613B69002BE7D100BF00BF16
:1025D8002437BD465DF8047B704780B485B000AFF2
:1025E800786039603B68002B03D17B682833FB6037
:1025F80002E07B682433FB60FB6818461437BD464D
:102608005DF8047B704780B483B000AF78607B6866
:102618005B6ADBB218460C37BD465DF8047B704731
:1026280080B483B000AF78600B46FB70FA787B68A3
:102638009A6200BF0C37BD465DF8047B704790B5C1
:1026480085B000AF78607B681B681846FFF7D3FD3C
:102658000346DBB2002B08D17B681B681846FFF7DE
:10266800B7FD0346DBB2002B01D0012300E00023B5
:10267800FB73FB7B012B42D17B6893F83C30012B29
:102688001AD17B681A6B7B68DB6A9A4214D17B6823
:10269800DB6A5A1C7B68DA627B68DA6A7B685B6A89
:1026A8009A4202D17B680022DA627B681B8B43F076
:1026B80020039AB27B681A83786800F025F87B6853
:1026C80019687B68DA697B681B6BD4180846FFF7C2
:1026D8009AFF034623707B681B6B5A1C7B685B6AF6
:1026E8009A4207D17B6800221A637B68012283F82B
:1026F8003C2004E07B681B6B5A1C7B681A63FB7BDD
:1027080018461437BD4690BD80B584B000AF7860D8
:102718000023FB737B681B681846FFF759FD0346C7
:10272800012B08D17B681B8B43F002039AB27B68AC
:102738001A830123FB737B681B681846FFF722FD89
:102748000346012B08D17B681B8B43F008039AB220
:102758007B681A830123FB737B681B681846FFF7A5
:1027680024FD0346012B08D17B681B8B43F0100323
:102778009AB27B681A830123FB737B681B6818462F
:10278800FFF7EDFC0346012B08D17B681B8B43F058
:1027980004039AB27B681A830123FB73FB7B012B2A
:1027A80028D17B681B7D012B10D17B689B7D03F0B2
:1027B8000403002B05D07B681B681846FFF7FBFD58
:1027C80004E07B681B681846FFF79EFE7B681B6861
:1027D8001846FFF736FD7B681B681846FFF758FD5B
:1027E8007B681B681846FFF739FD7B681B6818462D
:1027F800FFF741FD00BF1037BD4680BD80B584B0EE
:1028080000AF78607B681B681846FFF707FD034632
:10281800FB73FB7B012B29D17B689A6B7B685B6B15
:102828009A421BD07B6818687B681A6A7B689B6B26
:1028380013441B781946FFF7F3FE7B689B6B5A1C01
:102848007B689B6A9A4203D17B6800229A630DE0F9
:102858007B689B6B5A1C7B689A6307E07B681B68E4
:102868001846FFF7C9FD7B6800229A74FB7B18465F
:102878001037BD4680BD000080B500AF0348FFF7A4
:10288800DEFE0248FFF7BAFF00BF80BD9C010020B2
:10289800B0B584B002AF78607B681B681846FFF754
:1028A8004BFC0346012B46D17B681B681846FFF793
:1028B80033FC7B685C687B681B7C1D467B681B68F7
:1028C80001211846FFF789FE02467B68DB69194635
:1028D800002300930B4629462046FFF78BFB7B68B5
:1028E80058687B681B7C19467B685B6A1A46FFF749
:1028F8005BFB7B685A687B681B7C19461046FFF7B0
:10290800B7FB7B681B681846FFF7DBFD7B681B6815
:102918009A687B681B6842F040029A607B685A6834
:102928007B681B7C19461046FFF71CFB7B681B68FD
:102938001846FFF7E1FB00BF0837BD46B0BDF0B54C
:1029480085B002AF78607B681B681846FFF7F4FB18
:102958000346012B2CD17B681B681846FFF7DCFB6C
:102968007B689C687B685B7C1D467B681B6A1E468F
:102978007B681B6800211846FFF72FFE03461022CC
:102988000092324629462046FFF734FB7B689A6856
:102998007B685B7C19461046FFF76AFB7B681B68FF
:1029A8001846FFF7D4FD7B681B681846FFF7A4FBA1
:1029B80000BF0C37BD46F0BD80B584B000AF78606D
:1029C8000023FB817B681B8B03F02003002B0AD0BC
:1029D800FB8943F02003FB817B681B8B23F02003DA
:1029E8009AB27B681A837B681B7D002B08D17B68B1
:1029F8001A8BFB891343FB817B6800221A833AE018
:102A08007B681B7D012B36D17868FFF715F90346E3
:102A1800002B30D17B681B8B002B2CD07B681A8B4A
:102A2800FB891343FB817B6800221A837B689B7DAB
:102A380003F00403002B0FD07B681B681846FFF7D0
:102A4800E2FD7B681B681846FFF722FC7B681B6861
:102A58001846FFF72AFC0EE07B681B681846FFF74C
:102A6800D2FD7B681B681846FFF712FC7B681B6861
:102A78001846FFF726FDFB8918461037BD4680BD6E
:102A880080B584B000AF78607B681B681A46564BE7
:102A98009A4212D1554BFB60FFF7DAF90346002240
:102AA80000211846FFF72AFA034619465B20FFF76C
:102AB800FBF95B20FFF7DAF902E00023FB6000BFB7
:102AC800FB68002B00F08B80FB685A7D7B685B7D80
:102AD8001343DAB2FB685A75FB689A7D7B689B7D65
:102AE8001343DAB2FB689A757B681A68FB681A6048
:102AF800FB6800221A83FB6800225A837B685B7D8F
:102B080003F00103002B3CD07B685A6AFB685A62C9
:102B18007B68DA69FB68DA61FB680022DA62FB68C5
:102B280000221A637B681A7DFB681A75FB6800220D
:102B380083F83C20FB689B7D03F01003002B15D025
:102B48007B685A68FB685A607B681A7CFB681A7451
:102B5800F868FFF79DFEFB681B681846FFF708FC3E
:102B6800FB681B681846FFF7E2FB0AE0FB689B7DE1
:102B780003F00403002B04D0FB681B681846FFF71A
:102B880094FB7B685B7D03F00203002B27D07B68F6
:102B98009A6AFB689A627B681A6AFB681A62FB6821
:102BA80000225A63FB6800229A63FB6800229A7429
:102BB800FB680022DA74FB689B7D03F02003002B7E
:102BC8000DD07B689A68FB689A607B685A7CFB68C2
:102BD8005A74FB680022DA60F868FFF7B0FEFB68F9
:102BE80018461037BD4680BD008000409C0100207B
:102BF80080B586B000AFF860B9607A603B603B682A
:102C080000221A60FB685B8B03F48073002B02D0F0
:102C18004FF4807316E0FB685B8B43F480739AB2C1
:102C2800FB685A833B687A68B968F868FFF7A2F8C6
:102C38000346FB82FB685B8B23F480739AB2FB68C4
:102C48005A83FB8A18461837BD4680BD80B584B0C4
:102C580000AFF860B9607A603B60BB6900221A6017
:102C6800FB685B8B03F08003002B01D0802353E0CB
:102C78007B68002B4FD0FB685B8B43F080039AB2D4
:102C8800FB685A833B687A68B968F868FEF75AFFA8
:102C98000346012B08D1FB685B8B23F080039AB2B3
:102CA800FB685A83402337E0FB689B7C002B28D1C4
:102CB800FB681868FB681A6AFB689B6B13441B78EF
:102CC8001946FFF7ADFCFB689B6B5A1CFB689B6AB7
:102CD8009A4203D1FB6800229A6304E0FB689B6B6D
:102CE8005A1CFB689A63FB689A6BFB685B6B9A4299
:102CF80007D0FB6801229A74FB681B681846FFF727
:102D0800F5FABB697A681A60FB685B8B23F080036D
:102D18009AB2FB685A83002318461037BD4680BD17
:102D280080B582B000AF78607B681B681846FFF7F3
:102D3800F3F97B689B7D03F02003002B0DD07B68A3
:102D48009A687B685B7C19461046FFF7B3F97B6885
:102D58001B681846FFF71EFC0AE07B689B7D03F0A2
:102D68000803002B04D07B681B681846FFF744FB58
:102D78007B689B7D03F01003002B17D07B681B68D2
:102D88001846FFF77BFB7B681B681846FFF755FB67
:102D98007B685A687B681B7C19461046FFF78AF9DE
:102DA8007B681B681846FFF7AFFB0AE07B689B7DD2
:102DB80003F00403002B04D07B681B681846FFF758
:102DC800FAFA00BF0837BD4680BD80B483B000AFB3
:102DD80078607B681B6843F001027B681A6000BF5B
:102DE8000C37BD465DF8047B704780B483B000AFF4
:102DF80078607B681B6823F001027B681A6000BF5B
:102E08000C37BD465DF8047B704780B483B000AFD3
:102E1800786039607B681B6823F004023B681A43BA
:102E28007B681A6000BF0C37BD465DF8047B7047AD
:102E380080B483B000AF78607B681B6803F004033C
:102E480018460C37BD465DF8047B704780B483B0E4
:102E580000AF786039607B683A681A6300BF0C3746
:102E6800BD465DF8047B704780B483B000AF7860DE
:102E780039607B683A685A6300BF0C37BD465DF815
:102E8800047B704780B483B000AF786039607B689A
:102E98003A689A6300BF0C37BD465DF8047B7047FB
:102EA80080B483B000AF786039607B683A681A6490
:102EB80000BF0C37BD465DF8047B704780B483B013
:102EC80000AF78607B685B6B18460C37BD465DF8D1
:102ED800047B704780B483B000AF78607B689B6BDD
:102EE80018460C37BD465DF8047B704780B483B044
:102EF80000AF78607B681B6C18460C37BD465DF8E0
:102F0800047B704780B483B000AF78607B685B69EE
:102F180043F001027B685A6100BF0C37BD465DF87B
:102F2800047B704780B483B000AF78607B681B690E
:102F380018460C37BD465DF8047B704780B483B0F3
:102F480000AF786039607B683A689A6100BF0C37D7
:102F5800BD465DF8047B704780B483B000AF7860ED
:102F680039607B683A689A6200BF0C37BD465DF8E5
:102F7800047B704780B582B000AF786039607B68A9
:102F88001B681846FFF79AFF02463B68934205D034
:102F98007B681B6839681846FFF766FF00BF08376B
:102FA800BD4680BD80B582B000AF786039607B686F
:102FB8001B681846FFF78EFF02463B68934205D010
:102FC8007B681B6839681846FFF75CFF00BF083745
:102FD800BD4680BD80B582B000AF786039607B683F
:102FE8001B681846FFF782FF02463B68934205D0EC
:102FF8007B681B6839681846FFF752FF00BF08371F
:10300800BD4680BD80B485B000AF78607B681B6822
:103018009A68074B1340FB60FB68062B0CBF012323
:103028000023DBB218461437BD465DF8047B7047B1
:103038000700010080B584B000AF78600B46FB70D4
:103048007B681B681846FFF7F3FEF860FB78002BD7
:1030580023D07B681B68374A934218D07B681B686B
:10306800354A934213D07B681B68344A93420ED08A
:103078007B681B68324A934209D07B681B68314AD7
:10308800934204D07B681B682F4A934205D17B6822
:103098001B6800211846FFF7D9FEFB68042B11D0E6
:1030A8007B681B6804211846FFF7AFFE7B681B6826
:1030B8001846FFF727FF7B681B68F9681846FFF773
:1030C800A4FE04E07B681B681846FFF71BFF7B68BB
:1030D8001B681846FFF779FEFB78002B25D07B6824
:1030E8001B68144A934218D07B681B68124A9342A3
:1030F80013D07B681B68114A93420ED07B681B680B
:103108000F4A934209D07B681B680E4A934204D049
:103118007B681B680C4A934207D17B681A687B68F6
:103128005B7919461046FFF791FE00BF1037BD4680
:1031380080BD00BF002C0140003401400040014028
:1031480000440140004801400050014080B582B071
:1031580000AF78607B681B681846FFF746FE00BF23
:103168000837BD4680BD80B584B000AF786039604F
:10317800142008F089FA03461A467B681A607B68AF
:103188001B68BB60BB6800221A60BB683A68DA60DB
:103198003B689B00184608F077FA03461A46BB6856
:1031A8005A60BB6800229A60BB6801221A74002327
:1031B800FB6009E0BB685A68FB689B001344002267
:1031C8001A60FB680133FB60FA683B689A42F1DBDE
:1031D80000BF00BF1037BD4680BD80B586B000AFC8
:1031E800786039603B68002B01DA00233B600123DB
:1031F8003B6100237B610CE07B685A687B699B001C
:1032080013441A683B6902FB03F33B617B69013392
:103218007B617B68DB687A699A42EDDB7B689B6837
:103228003A699A423ADD7B689B687B617B690F2B20
:103238000DDC10237B610AE07B69B3F1804F03DB6F
:103248006FF000437B6102E07B695B007B617A6918
:103258003B699A42F0DB7B69184608F015FA034689
:10326800FB607B681B68002B0FD07B681B683A6883
:103278001946F86808F01EFB7B681B7C002B04D0FD
:103288007B681B68184608F007FA7B68FA681A60BA
:103298007B687A699A607B6801221A7400BF1837C4
:1032A800BD4680BD80B582B000AF78607B681B6882
:1032B800002B1DD07B681B681B68002B0AD07B681D
:1032C8001B681B7C002B05D07B681B681B68184695
:1032D80008F0E2F97B681B685B68184608F0DCF9BF
:1032E8007B681B68184608F0D7F97B6800221A60CB
:1032F80000BF0837BD4680BDB0B592B000AF87EDBE
:10330800040BF8604FF000024FF00003D7E9040106
:10331800FDF78CFB0346002B21D0FB685B681B681C
:10332800FA6852680432126802FB03F33B62FB68D6
:103338005B6801221A60FB685B68043301221A602B
:10334800396AF868FFF749FFFB681B682D221A7075
:103358003C697B6983F00045C7E9044508E0FB68E0
:103368005B6801221A60FB685B68043300221A60FC
:1033780097ED040B07F020FE87ED0E0BD7E90E231F
:10338800D7E90401FCF728FF02460B46C7E91023DA
:103398004FF000024FF00003D7E90E01FDF73CFBA8
:1033A8000346002B1ED0FB685B685B683B62FB68CA
:1033B8005B681B68FA6852680432126802FB03F300
:1033C800BB62FB685B6804331A6801321A60B96A29
:1033D800F868FFF702FFFB681A683B6A134430225B
:1033E8001A70F4E007F11C0302211846FFF7BBFE30
:1033F800FB695B6801221A60FB695B680433002281
:103408001A6007F1180302211846FFF7ACFE8FE097
:10341800BB695B681B68BA6952680432126802FBB0
:1034280003F33B62BB695B6801221A60FB695B6856
:1034380004331B680133FB62FB695B6804331A6859
:10344800BB695B68043301321A60BB69396A184684
:10345800FFF7C3FE97ED0E0B04F0D2FC0346002BDA
:1034680005D0A14BD3E90023C7E90C2307E09FED62
:103478009C1B97ED0E0B07F0E9FC87ED0C0B4FF04A
:1034880000029A4BD7E90C01FCF7A8FE02460B464E
:1034980010461946FDF708FB03465AB2BB691B687C
:1034A800D2B21A70FB695B685B68BB62BB6A002BAF
:1034B80008DDBB691B68581CFB691B68BA6A19469A
:1034C80008F0F8F9FB695B681B68FA69526804320E
:1034D800126802FB03F33B62FB695B6801221A6016
:1034E800FB695B680433FA6A1A60FB69396A184633
:1034F800FFF773FEFB6A002B07DDFB691868BB69E1
:103508001B68FA6A194608F0D5F94FF00002784BA3
:10351800D7E90E01FDF742F902460B4643EC172B9B
:10352800B0EE470AF0EE670A07F046FD87ED0E0B8E
:103538004FF000024FF00003D7E90E01FDF794FAAF
:103548000346002B7FF464AF07F118031846FFF712
:10355800A9FEFB685B685B683B62FB695B685B684C
:10356800FB62FB685B681B68FA6852680432126881
:1035780002FB03F3BB62FB685B6804331968FB69F1
:103588005B6804331A68FB685B6804330A441A6092
:10359800B96AF868FFF721FE0023BB620EE0FB69F9
:1035A8001A68BB6A1A44FB681B68386AB96A01441E
:1035B8000B4412781A70BB6A0133BB62BA6AFB6AA1
:1035C8009A42ECDB07F11C031846FFF76BFE4FF03D
:1035D80000024FF00003D7E91001FDF745FA034652
:1035E800002B00D1E4E0FB685B685B683B62FB682A
:1035F8005B681B68FA6852680432126802FB03F3BE
:10360800BB62FB685B6804331A6801321A60B96AE6
:10361800F868FFF7E2FDFB681A683B6A13442E223C
:103628001A700023FB62002387F82730B8E04FF0B8
:1036380000022F4BD7E91001FCF786FF02460B4624
:10364800C7E9102397ED100B07F0B6FC87ED0E0BBA
:10365800FB685B685B683B62FB685B681B68FA68D1
:1036680052680432126802FB03F3BB62FB685B68B2
:1036780004331A6801321A60B96AF868FFF7ADFDB9
:103688004FF00002194BD7E90E01FCF7A7FD0246DF
:103698000B4643EC172BB0EE470AF0EE670A04F02E
:1036A800DDFB0346002B13D14FF000020F4BD7E987
:1036B8000E01FCF793FD02460B4643EC172BB0EEC8
:1036C800470AF0EE670A04F09BFB0346002B11D073
:1036D8004FF000024FF00003C7E90C231FE000BFC2
:1036E80000000000000024400000002000004840C6
:1036F800000024404FF00002314BD7E90E01FCF7DF
:103708006DFD02460B4643EC172B9FED2B1BB0EECD
:10371800470AF0EE670A07F099FB87ED0C0B4FF0AC
:1037280000024FF00003D7E90C01FDF77FF90346CB
:10373800002B0ED03B6B3B607B6B83F000437B60C0
:10374800D7E90001FDF7D8F90346DBB25B42DBB2EB
:1037580005E0D7E90C01FDF7CFF90346DBB2FA68BB
:1037680011683A6A0A441370D7E90E23D7E91001A1
:10377800FCF732FD02460B46C7E910234FF0000262
:103788004FF00003D7E91001FDF746F90346002B77
:1037980003D0012387F8273002E0FB6A0133FB627C
:1037A80097F82730002B03D1FB6A012B7FF73FAF37
:1037B80000BF4837BD46B0BD0000000000007040A3
:1037C8000000484080B594B000AF87ED080B87ED46
:1037D800061B87ED042B87ED023B78604FF0000253
:1037E800934BD7E90401FDF717F90346002B09D1DC
:1037F8004FF000028F4BD7E90401FDF70DF903469E
:10380800002B13D00023FB640CE08B4AFB6C1344A1
:10381800197807F12802FB6C13440A461A70FB6CEE
:103828000133FB64FB6C0B2BEFDD12E00023FB6420
:103838000CE0824AFB6C1344197807F12802FB6CF0
:1038480013440A461A70FB6C0133FB64FB6C0B2BA8
:10385800EFDD07F13C0302211846FFF784FC07F16E
:10386800380302211846FFF77EFC4FF000024FF0A4
:103878000003D7E90201FDF7F7F80346002B5DD0F6
:10388800BB6B184697ED020BFFF736FDFB6B5B68C9
:103898001B68FA6B52680432126802FB03F3FB647C
:1038A800FB6B5B6801221A60BB6B5B6804331A68A8
:1038B800FB6B5B6804331F321A60FB6BF96C1846AC
:1038C800FFF78BFC0023FB640BE0FB6B1A68FB6CB7
:1038D80013445B49FA6C0A4412781A70FB6C013382
:1038E800FB64FB6C152BF0DDBB6B5B685B687B6472
:1038F8007B6C002B09DDFB6B1B6803F11600BB6BAF
:103908001B687A6C194607F0D5FF0023FB6411E0A9
:10391800FB6B1A68BB6B5B6804331968FB6C0B4460
:10392800163313444749FA6C0A4412781A70FB6C30
:103938000133FB64FB6C082BEADD29E0FB6B5B6859
:103948001B68FA6B52680432126802FB03F3FB64CB
:10395800FB6B5B6801221A60FB6B5B6804332022F7
:103968001A60FB6BF96C1846FFF737FC0023FB6401
:103978000BE0FB6B1A68FB6C13443349FA6C0A447E
:1039880012781A70FB6C0133FB64FB6C1F2BF0DDA3
:10399800BB6B184697ED060BFFF7AEFC07F1340337
:1039A80002211846FFF7DFFB7B6B184697ED080BE3
:1039B800FFF7A2FC7B685B681B687A685268043270
:1039C800126802FB03F3BB647B685B6801221A6020
:1039D800BB6B5B6804331A68FB6B5B6804331B685A
:1039E8001344FB647B6B5B6804331B68FA6C1344F9
:1039F8003B647B685B6804333A6C58321A60B96C74
:103A08007868FFF7EAFB0023BB640BE07B681A6861
:103A1800BB6C13440D49BA6C0A4412781A70BB6C1B
:103A28000133BB64BB6C1B2BF0DD0023BB641CE0C3
:103A38000000F03F00000840A0B90008ACB9000839
:103A4800B8B90008D0B90008DCB90008FCB900080A
:103A58007B681A68BB6C1C3313449249BA6C0A44DD
:103A680012781A70BB6C0133BB64BB6C0A2BEFDD98
:103A7800BB6B5B685B687B647B6C002B09DD7B68D8
:103A88001B6803F12700BB6B1B687A6C194607F0AB
:103A980011FF0023BB6411E07B681A68BB6B5B688D
:103AA80004331968BB6C0B44273313447E49BA6C42
:103AB8000A4412781A70BB6C0133BB64BB6C062BCA
:103AC800EADD7B681A68BB6B5B6804331B682E33BE
:103AD80013440D221A707B681A68BB6B5B68043349
:103AE8001B682F3313440A221A700023BB6412E0A8
:103AF8007B681A68BB6B5B6804331968BB6C0B4442
:103B08003033134407F12801BA6C0A4412781A704A
:103B1800BB6C0133BB64BB6C0B2BE9DD7B681A689B
:103B2800BB6B5B6804331B683C3313440D221A706B
:103B38007B681A68BB6B5B6804331B683D331344AE
:103B48000A221A70FB6B5B685B687B640023BB64AA
:103B580012E0FB6B1A68BB6C1A447B681968BB6B74
:103B68005B6804331868BB6C03443E330B4412781B
:103B78001A70BB6C0133BB64BA6C7B6C9A42E8DB8D
:103B88007B681A68FB6C3E3313440D221A707B68FD
:103B98001A68FB6C3F3313440A221A700023FB6433
:103BA80016E07B681A68BB6B5B6804331968FB6CAA
:103BB8001944FB6B5B6804331B680B4440331344A4
:103BC8003A49FA6C0A4412781A70FB6C0133FB64A8
:103BD800FB6C0E2BE5DD7B6B5B685B687B6400230D
:103BE800FB6417E07B6B1A68FB6C1A447B681968E6
:103BF800BB6B5B6804331868FB6C1844FB6B5B6831
:103C080004331B6803444F330B4412781A70FB6C5F
:103C18000133FB64FA6C7B6C9A42E3DB0023FB64A0
:103C28001BE07B681A68BB6B5B6804331968FB6C24
:103C38001944FB6B5B6804331B6819447B6B5B6836
:103C480004331B680B444F3313441749FA6C0A4476
:103C580012781A70FB6C0133FB64FB6C062BE0DDF9
:103C680007F134031846FFF71DFB07F13803184620
:103C7800FFF718FB07F13C031846FFF713FB7B68B7
:103C88001A683B6C563313440D221A707B681A6805
:103C98003B6C573313440A221A7000BF5037BD4695
:103CA80080BD00BF18BA000824BA00082CBA000862
:103CB80080B584B000AF87ED000B4FF00002494B90
:103CC800D7E90001FCF7C6FE0346002B10D04FF0E1
:103CD8000002454BD7E90001FCF7B2FE0346002B72
:103CE80006D04FF000024FF00003C7E902236DE051
:103CF8004FF000023D4BD7E90001FCF7ABFE03464D
:103D0800002B0FD04FF00002394BD7E90001FCF728
:103D180097FE0346002B05D04FF00002354BC7E94C
:103D2800022353E04FF00002334BD7E90001FCF7C0
:103D380091FE0346002B10D04FF000022F4BD7E91D
:103D48000001FCF77DFE0346002B06D04FF0000271
:103D58004FF08043C7E9022338E04FF00002284BB8
:103D6800D7E90001FCF776FE0346002B0FD04FF091
:103D78000002244BD7E90001FCF762FE0346002B42
:103D880005D04FF00002204BC7E902231EE04FF098
:103D980000021E4BD7E90001FCF75CFE0346002B2E
:103DA8000FD04FF000021A4BD7E90001FCF748FE8C
:103DB8000346002B05D04FF00002164BC7E902233B
:103DC80004E04FF00002144BC7E90223D7E90223AD
:103DD80043EC172BB0EE470AF0EE670A1037BD46E2
:103DE80080BD00BF0000304000003240000033407A
:103DF800000035400000F03F000036400000384029
:103E08000000394000003B400000084000003C40F2
:103E180000003E40000010400000F0BF80B582B0B6
:103E280000AF534BD3E950235149C1E96623504BA6
:103E3800D3E952234E49C1E962234D4BD3E95423B8
:103E48004B49C1E960234A4BD3E956234849C1E9A4
:103E58006423474B002283F8B0223B4602211846D0
:103E6800FFF781F9424B93ED627B414B93ED666B13
:103E78003F4B93ED605B3E4B93ED644B3B681846BC
:103E8800B0EE443AF0EE643AB0EE452AF0EE652A18
:103E9800B0EE461AF0EE661AB0EE470AF0EE670A80
:103EA800FFF790FCFF223349334807F0B3FC334B4C
:103EB800002283F8FF213B685B6804331B68FF2BF3
:103EC80004DC3B685B685B687B6001E0FF237B6028
:103ED8007B68002B06DD3B681B687A681946264814
:103EE80007F0E8FC3B461846FFF7DCF9234A7B68F5
:103EF800134403F5807300221A701D4BD3E966231F
:103F08001E49C1E980231A4B93ED627BB0EE470A44
:103F1800F0EE670AFFF7CCFEB0EE407AF0EE607A7A
:103F2800164B83ED847B124BD3E960014FF00002FE
:103F3800134BFCF771FD0346002B06D00F494FF0D9
:103F480000020F4BC1E982230DE009494FF000023E
:103F58004FF08043C1E9602308494FF000024FF059
:103F68000003C1E9822300BF0837BD4680BD00BFFA
:103F7800F803002088B90008E0020020E0010020D2
:103F88000000F03F80B500AF244B002283F8BA222E
:103F9800224B002283F8B922204B002283F8BB224F
:103FA800FF221F491F4807F035FC1C4B002283F8ED
:103FB8009F221A4B002283F8A021184BD3E95023E3
:103FC8001649C1E95823154BD3E952231349C1E9CE
:103FD8005A23124BD3E956231049C1E95C230F4BEE
:103FE800D3E954230D49C1E95E230C4B062283F81B
:103FF800A722FF220A490C4807F00CFC0B4B0022B1
:1040080083F8FF217D220A49074807F053FC074B34
:10401800002283F87D2100BF80BD00BFF803002087
:1040280088B9000898050020E0020020E00100207F
:104038003CBA000880B485B000AF78607B685B68E4
:1040480004331B68012B04DC7B685B685B68FB60DE
:1040580001E00123FB60FB68002B0AD17B685B68E9
:1040680004331B68002BCCBF01230023DBB2FB7297
:104078001FE00123FB607B681B681B78302B01D194
:104088000223FB60FB68022B0AD17B685B68043360
:104098001B68002BCCBF01230023DBB2FB7208E0B6
:1040A8007B681B681B782F2B8CBF01230023DBB296
:1040B800FB72FB7A18461437BD465DF8047B7047DF
:1040C80080B485B000AF78607B685B6804331B6898
:1040D800012B04DC7B685B685B68FB6001E0012303
:1040E800FB60FB68002B0AD17B685B6804331B68A4
:1040F800012BD4BF01230023DBB2FB721FE0012395
:10410800FB607B681B681B78392B01D10223FB609D
:10411800FB68022B0AD17B685B6804331B68012BA0
:10412800D4BF01230023DBB2FB7208E07B681B6865
:104138001B78392B94BF01230023DBB2FB72FB7A77
:1041480018461437BD465DF8047B704780B588B0C3
:1041580000AF9848FCF70AFD0346FB613B1D0221AE
:104168001846FFF700F87B685B681B687A68526836
:104178000432126802FB03F3BB617B685B680122AF
:104188001A607B685B680433FA691A607B68B969EE
:104198001846FFF722F87B681B68FA6985491846B4
:1041A80007F038FB8448FCF7E1FC0346FB6107F1A4
:1041B800100302211846FEF7D6FF3B695B681B68AF
:1041C8003A6952680432126802FB03F3BB613B6927
:1041D8005B6801221A603B695B680433FA691A60FC
:1041E8003B69B9691846FEF7F8FF3B691B68FA692D
:1041F8007149184607F00EFB07F10C030221184617
:10420800FEF7B1FFFB685B681B68FA685268043206
:10421800126802FB03F3BB61FB685B6801221A604A
:104228007B685B6804331A683B695B6804331B6806
:104238001344FB61FB685B680433FA691A60FB6826
:10424800B9691846FEF7C9FF7B685B685B687B61E4
:104258007B69002B07DDFB6818687B681B687A6937
:10426800194607F027FB3B695B685B687B610023A5
:10427800BB6111E03B691A68BB691A44FB681B689B
:104288007968496804310868B96901440B441278AF
:104298001A70BB690133BB61BA697B699A42E9DB71
:1042A80007F110031846FEF7FDFF3B1D1846FEF701
:1042B800F9FFFF2241493F4807F0ACFA404B002282
:1042C80083F89F22FB685B6804331B68FF2B01DDC2
:1042D800FF23FB61FB69002B06DDFB681B68FA699D
:1042E8001946344807F0E6FA07F10C031846FEF7BA
:1042F800D9FF334AFB69134403F5D07300221A70BF
:104308002D48FCF733FC0346FB6107F10803022143
:104318001846FEF728FFBB685B681B68BA685268D6
:104328000432126802FB03F3BB61BB685B680122BD
:104338001A60BB685B680433FA691A60BB68B969BC
:104348001846FEF74AFFBB681B68FA691A491846FF
:1043580007F060FAFF2219491A4807F05BFA164B72
:10436800002283F8FF21BB685B6804331B68FF2BBE
:1043780004DCBB685B685B68FB6101E0FF23FB61F1
:10438800FB69002B06DDBB681B68FA6919460D48F6
:1043980007F090FA07F108031846FEF783FF064A6C
:1043A800FB69134403F5807300221A7000BF20379D
:1043B800BD4680BD98050020E001002088B90008AE
:1043C800F8030020E0020020B0B58AB000AF7860A2
:1043D8004FF000024FF00003C7E906230023FB74E7
:1043E8004FF000025C4BC7E9082300237B610023E0
:1043F800FB607B685B6804331B687A699A427DDAE4
:104408007B681A687B6913441B78202B76D07B68FD
:104418001A687B6913441B782E2B0DD1FB7C002B6B
:1044280004D00023BB740123FB608CE00123FB74E0
:104438007B6901337B6186E07B681A687B6913447A
:104448001B78FB72FB7A2F2B04D80023BB74012343
:10445800FB6078E0FB7A392B04D90023BB74012375
:10446800FB6070E0FB7C002B1ED14FF000023B4B41
:10447800D7E90601FCF768F802460B4614461D46C4
:10448800FB7A1846FBF7E6FF4FF00002344BFBF7C8
:10449800A3FE02460B4620462946FBF79FFE02462E
:1044A8000B46C7E9062325E04FF000022B4BD7E95E
:1044B8000801FCF749F802460B46C7E90823FB7ACE
:1044C8001846FBF7C7FF4FF00002254BFBF784FEA9
:1044D80002460B4610461946D7E90823FCF75EF951
:1044E80002460B46D7E90601FBF778FE02460B4663
:1044F800C7E906237B6901337B6124E04FF00002A2
:10450800184BD7E90601FCF7A5FA0346002B09D09A
:104518004FF00002144BD7E90601FCF791FA034665
:10452800002B0AD14FF000024FF00003D7E9060133
:10453800FCF772FA0346002B01D0012300E00023A8
:10454800BB740123FB60FB68002B3FF450AFBB7CBE
:1045580018462837BD46B0BD0000F03F0000244093
:10456800000048400000144000003E40B0B588B04C
:1045780000AF78604FF000024FF00003C7E9042352
:104588000023BB724FF00002514BC7E906230023FA
:10459800FB600023FB727EE07B681A68FB681344AB
:1045A8001B782E2B10D1BB7A002B07D04FF00002BE
:1045B800484BC7E904230123FB726CE00123BB725B
:1045C800FB680133FB6066E07B681A68FB6813448C
:1045D8001B787B727B7A2F2B07D84FF000023D4B5C
:1045E800C7E904230123FB7255E07B7A392B07D9ED
:1045F8004FF00002374BC7E904230123FB724AE05E
:10460800BB7A002B1ED14FF00002334BD7E90401CF
:10461800FBF79AFF02460B4614461D467B7A18465E
:10462800FBF718FF4FF000022C4BFBF7D5FD0246B5
:104638000B4620462946FBF7D1FD02460B46C7E943
:10464800042325E04FF00002234BD7E90601FBF7CE
:104658007BFF02460B46C7E906237B7A1846FBF721
:10466800F9FE4FF000021D4BFBF7B6FD02460B4664
:1046780010461946D7E90623FCF790F802460B4680
:10468800D7E90401FBF7AAFD02460B46C7E9042354
:10469800FB680133FB60FB7A002B0ED17B685B68FB
:1046A80004331B68FA689A4207DA7B681A68FB6861
:1046B80013441B78202B7FF46FAFD7E9042343EC16
:1046C800172BB0EE470AF0EE670A2037BD46B0BD9B
:1046D8000000F03F0000F0BF000024400000484008
:1046E80080B58AB000AF786007F10C030221184644
:1046F800FEF739FD07F1180302211846FEF733FDCE
:1047080007F1140302211846FEF72DFD884B93F894
:10471800A832032B67D0032B00F3DC83012B02D0D4
:10472800022B30D0D6E3824B93F8B032012B1BD941
:104738007F4B032283F8A8227D4B032283F8A9220A
:10474800FF227C497C4807F065F87C4B002283F8FF
:10475800FF2177227A49784807F0ACF8774B002296
:1047680083F8772100F0CABCFF227249724807F02B
:1047780051F8724B002283F8FF21704B002283F816
:10478800002100F0BBBC6A4B93F8B032012B1BD957
:10479800674B032283F8A822654B032283F8A922DA
:1047A800FF226449644807F035F8644B002283F817
:1047B800FF2177226249604807F07CF85F4B0022AE
:1047C80083F8772100F09ABCFF225A495A4807F02B
:1047D80021F85A4B002283F8FF21584B002283F816
:1047E800002100F08BBC07F1100302211846FEF7E8
:1047F800BAFC4F4B93F8A932032B00F09B82032B92
:1048080000F31383012B03D0022B00F05E810CE32D
:104818004A48FCF7ABF903467B62FB685B681B6898
:10482800FA6852680432126802FB03F3FB61FB6802
:104838005B6801221A60FB685B6804337A6A1A6055
:10484800FB68F9691846FEF7C8FCFB681B687A6ABA
:104858003A49184606F0DEFF002387F82330FB6844
:104868005B6804331B68012B07D1FB681B681B7846
:104878000D2B02D1012387F8233097F82330002B22
:1048880064D02B4B002283F8B022294B022283F8F4
:10489800A9222C48FCF76AF903467B627B695B68AE
:1048A8001B687A6952680432126802FB03F3FB61E1
:1048B8007B695B6801221A607B695B6804337A6AEA
:1048C8001A607B69F9691846FEF787FC7B691B68E3
:1048D8007A6A1C49184606F09DFF7B691846FFF75F
:1048E80073FD03461A46124B83F8BB22FF22114977
:1048F800114806F08FFF114B002283F8FF21002397
:104908007B620DE0104A7B6A134419780B4A7B6A74
:10491800134403F580730A461A707B6A01337B627D
:104928007B6A242BEEDD054B002283F82521CBE2A0
:10493800F803002088B90008E0020020E001002008
:10494800BCBA00089805002034BB00087B681B68C7
:10495800002B00F09E809A48FCF708F903467B621A
:104968007B695B681B687A6952680432126802FBCB
:1049780003F3FB617B695B6801221A607B695B68F2
:1049880004337A6A1A607B69F9691846FEF725FCD0
:104998007B691B687A6A8A49184606F03BFF002340
:1049A80087F822307B691846FFF744FB0346002B43
:1049B80032D08348FCF7DAF803467B623B695B68D0
:1049C8001B683A6952680432126802FB03F3FB6100
:1049D8003B695B6801221A603B695B6804337A6A49
:1049E8001A603B69F9691846FEF7F7FB3B691B68D3
:1049F8007A6A7349184606F00DFF3B691846FFF7B7
:104A08005FFB0346002B03D0012387F8233006E021
:104A1800012387F8223002E0012387F8223097F833
:104A28002230002B38D06648FCF7A0F803467B629A
:104A3800BB695B681B68BA6952680432126802FB7A
:104A480003F3FB61BB695B6801221A60BB695B68A1
:104A580004337A6A1A60BB69F9691846FEF7BDFB28
:104A6800BB691B687A6A5649184606F0D3FE0023CC
:104A780087F82330BB695B6804331B68012B0BD1B3
:104A8800BB691B681B782E2B06D1012387F82330BE
:104A980002E0002387F8233097F82330002B06D054
:104AA800484B012283F8A922FFF750FB0CE2FF22B2
:104AB8004549464806F0AEFE414B002283F8FF21E7
:104AC8003F4B002283F80021FEE13E4B93F8B032C1
:104AD800012B40F221813B4B93F8BB32002B00F0B5
:104AE800E980384B002283F8B022364B042283F841
:104AF800A9223748FCF73AF803467B62FB685B68F3
:104B08001B68FA6852680432126802FB03F3FB61FF
:104B1800FB685B6801221A60FB685B6804337A6A89
:104B28001A60FB68F9691846FEF757FBFB681B68B3
:104B38007A6A2749184606F06DFE7B695B681B6830
:104B48007A6952680432126802FB03F3FB617B69DD
:104B58005B6801221A60FB685B6804331A687B692A
:104B68005B68043324321A607B69F9691846FEF7DA
:104B780034FB00237B620BE07B691A687B6A134471
:104B880014497A6A0A4412781A707B6A01337B6284
:104B98007B6A1A2BF0DDFB685B685B687B627B6A6B
:104BA800002B09DD7B691B6803F11B00FB681B6890
:104BB8007A6A194606F07EFE00237B621EE000BF7B
:104BC800E0010020F803002088B90008E002002076
:104BD800980500205CBB00087B691A68FB685B6865
:104BE800043319687B6A0B441B331344A7497A6A58
:104BF8000A4412781A707B6A01337B627B6A082B3D
:104C0800EADDFF22A249A34806F004FEA24B0022D7
:104C180083F8FF217B695B6804331B68FF2B06DC84
:104C2800FB685B6804331B6824337B6201E0FF2365
:104C38007B627B6A002B06DD7B691B687A6A1946F2
:104C4800944806F037FE944A7B6A134403F5807350
:104C580000221A709148FBF789FF03467B623B6983
:104C68005B681B683A6952680432126802FB03F3F6
:104C7800FB613B695B6801221A603B695B6804332E
:104C88007A6A1A603B69F9691846FEF7A6FA3B6921
:104C98001B687A6A8149184606F0BCFD3B691846CC
:104CA800FFF764FCB0EE407AF0EE607A7C4B83ED5F
:104CB800567B09E17A4B002283F8A922784B00221F
:104CC80083F8A822764B002283F8B022744B07227F
:104CD80083F8A722FF226E496E4806F09BFD6E4BB3
:104CE800002283F8FF2100237B620DE06D4A7B6A76
:104CF80013441978684A7B6A134403F580730A469B
:104D08001A707B6A01337B627B6A262BEEDD624B6D
:104D1800002283F82721D7E0FF225D495D4806F08D
:104D280079FD5D4B002283F8FF215B4B002283F85D
:104D38000021C9E07B681B68002B5AD05648FBF756
:104D480015FF03467B627B695B681B687A6952685A
:104D58000432126802FB03F3FB617B695B68012282
:104D68001A607B695B6804337A6A1A607B69F9693F
:104D78001846FEF732FA7B691B687A6A4649184674
:104D880006F048FD7B691846FFF754F90346002BE7
:104D98002BD04148FBF7EAFE03467B623B695B6820
:104DA8001B683A6952680432126802FB03F3FB611C
:104DB8003B695B6801221A603B695B6804337A6A65
:104DC8001A603B69F9691846FEF707FA3B691B68E0
:104DD8007A6A3149184606F01DFD3B691846FFF707
:104DE8006FF9034687F8233006E0002387F823305D
:104DF80002E0002387F8233097F82330002B06D0F1
:104E0800274B012283F8A922FFF7A0F95CE0FF22D3
:104E18001F49204806F0FEFC1F4B002283F8FF21A3
:104E28001D4B002283F800214EE01D4B93F8B03251
:104E3800012B3BD9FF221649184806F0EBFC184B0A
:104E4800002283F89F22164B002283F8A021144BDE
:104E5800002283F8A922124B002283F8A822104BC3
:104E6800062283F8A722FF2209490A4806F0D2FC45
:104E7800094B002283F8FF217D220B49054806F0E3
:104E880019FD054B002283F87D211CE078BB000842
:104E980088B90008E0020020E00100209805002001
:104EA800F803002084BB0008ACBB0008FF229D4922
:104EB8009D4806F0AFFC9D4B002283F8FF219B4BD9
:104EC800002283F8002100BF07F110031846FEF7FF
:104ED800E9F913E17B681B68002B00F00181934816
:104EE800FBF744FE03467B62FB685B681B68FA6855
:104EF80052680432126802FB03F3FB61FB685B68CB
:104F080001221A60FB685B6804337A6A1A60FB68DE
:104F1800F9691846FEF761F9FB681B687A6A8349E4
:104F2800184606F077FC002387F82330FB685B6897
:104F380004331B68012B07D1FB681B681B78312BD6
:104F480002D1012387F8233097F82330002B2FD084
:104F5800774B002283F8B022754B012283F8A822F0
:104F680073494FF00002734BC1E95423FF226D4986
:104F78006D4806F04FFC6D4B002283F8FF2100239B
:104F88007B620DE06C4A7B6A13441978674A7B6A36
:104F9800134403F580730A461A707B6A01337B62F7
:104FA8007B6A1B2BEEDD614B002283F81C21A4E0F9
:104FB8005E48FBF7DBFD03467B62BB695B681B68E9
:104FC800BA6952680432126802FB03F3FB61BB69D9
:104FD8005B6801221A60BB695B6804337A6A1A60ED
:104FE800BB69F9691846FEF7F8F8BB691B687A6A65
:104FF8004E49184606F00EFC002387F82330BB699B
:105008005B6804331B68012B07D1BB691B681B78DD
:10501800322B02D1012387F8233097F82330002B55
:1050280030D0434B002283F8B022414B022283F850
:10503800A8223F494FF000024FF08043C1E95423B2
:10504800FF223849384806F0E5FB384B002283F840
:10505800FF2100237B620DE0384A7B6A13441978EC
:10506800324A7B6A134403F580730A461A707B6AD6
:1050780001337B627B6A1B2BEEDD2C4B002283F80D
:105088001C213AE02A4B002283F8A822284B002250
:1050980083F8B022264B072283F8A722FF22214952
:1050A800214806F0B7FB214B002283F8FF2100239B
:1050B8007B620DE0224A7B6A134419781B4A7B6A9B
:1050C800134403F580730A461A707B6A01337B62C6
:1050D8007B6A262BEEDD154B002283F827210CE096
:1050E800FF221049104806F095FB104B002283F868
:1050F800FF210E4B002283F8002100BF07F11403A3
:105108001846FEF7CFF807F118031846FEF7CAF855
:1051180007F10C031846FEF7C5F800BF2837BD464F
:1051280080BD00BF88B90008E0020020E00100202F
:10513800F80300200000F03F2CBC000848BC000821
:1051480084BB000800000000B0B58CB000AF7860E8
:105158004FF000024FF00003C7E90A2300237B62E7
:105168000023FB617B685B6804331B687A6A9A4298
:1051780040DA7B681A687B6A13441B78202B39D085
:105188007B681A687B6A13441B78FB73FB7B2F2BA5
:1051980005D8002387F823300123FB6188E0FB7BD7
:1051A800392B05D9002387F823300123FB617FE0E1
:1051B8004FF00002464BD7E90A01FBF7C5F9024652
:1051C8000B4614461D46FB7B1846FBF743F94FF088
:1051D8000002404BFBF700F802460B4620462946E2
:1051E800FAF7FCFF02460B46C7E90A237B6A01333C
:1051F8007B625DE097ED0A0B02F002FE0346002B8E
:1052080005D0354BD3E90023C7E904232AE04FF042
:1052180000024FF00003D7E90A01FBF7FDFB034644
:10522800002B06D04FF000024FF00003C7E904231B
:1052380018E09FED251B97ED0A0B05F007FE87ED9B
:10524800040B4FF000024FF00003D7E90401FBF70D
:10525800E3FB0346002B05D04FF000024FF000039C
:10526800C7E904234FF000024FF00003D7E9040117
:10527800FBF7D2FB0346002B15D04FF00002174B6B
:10528800D7E90A01FBF7E6FB0346002B0BD04FF0EA
:105298000002134BD7E90A01FBF7D2FB0346002BA8
:1052A80001D0012300E0002387F823300123FB61AC
:1052B800FB69002B3FF454AF97F82330184630377A
:1052C800BD46B0BDAFF30080000000000000F03F15
:1052D800000024400000484000000020000030404A
:1052E80000003E4000000000B0B58CB000AF786010
:1052F8004FF000024FF00003C7E90A2300237B6246
:105308000023FB617B685B6804331B687A6A9A42F6
:1053180040DA7B681A687B6A13441B78202B39D0E3
:105328007B681A687B6A13441B78FB73FB7B2F2B03
:1053380005D8002387F823300123FB617EE0FB7B3F
:10534800392B05D9002387F823300123FB6175E049
:105358004FF00002404BD7E90A01FBF7F5F8024687
:105368000B4614461D46FB7B1846FBF773F84FF0B7
:1053780000023A4BFAF730FF02460B462046294610
:10538800FAF72CFF02460B46C7E90A237B6A01336A
:105398007B6253E097ED0A0B02F032FD0346002BC7
:1053A80005D02F4BD3E90023C7E904232AE04FF0A7
:1053B80000024FF00003D7E90A01FBF72DFB034673
:1053C800002B06D04FF000024FF00003C7E904237A
:1053D80018E09FED1F1B97ED0A0B05F037FD87EDD1
:1053E800040B4FF000024FF00003D7E90401FBF76C
:1053F80013FB0346002B05D04FF000024FF00003CB
:10540800C7E904234FF000024FF00003D7E9040175
:10541800FBF702FB0346002B0BD04FF00002114BA9
:10542800D7E90A01FBF70CFB0346002B01D0012347
:1054380000E0002387F823300123FB61FB69002B80
:105448003FF45EAF97F8233018463037BD46B0BDFD
:1054580000000000000034400000244000004840E4
:10546800000000200080664080B588B000AF7860FA
:1054780007F1080302211846FDF775FE07F110032E
:1054880002211846FDF76FFE07F10C0302211846AA
:10549800FDF769FE894B93F8AB32032B00F04E827F
:1054A800032B00F3C282012B03D0022B00F01281E0
:1054B800BBE28348FBF75AFB0346FB61BB685B68AA
:1054C8001B68BA6852680432126802FB03F37B61F6
:1054D800BB685B6801221A60BB685B680433FA69C1
:1054E8001A60BB6879691846FDF777FEBB681B68C8
:1054F800FA697349184606F08DF90023FB76BB68F4
:105508005B6804331B68012B06D1BB681B681B78DA
:105518000D2B01D10123FB76FB7E002B56D0674B68
:10552800002283F8B022654B022283F8AB2265483B
:10553800FBF71CFB0346FB61FB685B681B68FA68AA
:1055480052680432126802FB03F37B61FB685B68F4
:1055580001221A60FB685B680433FA691A60FB6809
:1055680079691846FDF739FEFB681B68FA695549E1
:10557800184606F04FF9FB681846FFF7B5FE0346D4
:105588001A464E4B83F8BA22FF224F494F4806F07D
:1055980041F94B4B002283F8FF210023FB610DE00A
:1055A8004B4AFB6913441978454AFB69134403F5D0
:1055B80080730A461A70FB690133FB61FB69242B6F
:1055C800EEDD3F4B002283F8252169E27B681B68EA
:1055D800002B58D03A48FBF7C9FA0346FB61FB6831
:1055E8005B681B68FA6852680432126802FB03F3AE
:1055F8007B61FB685B6801221A60FB685B680433A7
:10560800FA691A60FB6879691846FDF7E6FDFB68D8
:105618001B68FA692A49184606F0FCF8FB68184620
:10562800FEF708FD0346002B2AD02548FBF79EFA13
:105638000346FB613B695B681B683A695268043240
:10564800126802FB03F37B613B695B6801221A6005
:105658003B695B680433FA691A603B6979691846E3
:10566800FDF7BBFD3B691B68FA691549184606F04A
:10567800D1F83B691846FEF723FD0346FB7604E0A4
:105688000023FB7601E00023FB76FB7E002B06D08F
:105698000A4B012283F8AB22FEF758FD00E2FF22F5
:1056A80009490A4806F0B6F8054B002283F8FF219D
:1056B800034B002283F80021F2E100BFF803002029
:1056C800E00100209805002088B90008E0020020C9
:1056D80064BC0008914B93F8B032012B40F2108162
:1056E8008E4B93F8BA32002B00F0DC808B4B0022F3
:1056F80083F8B022894B042283F8AB228848FBF751
:1057080035FA0346FB61BB685B681B68BA68526878
:105718000432126802FB03F37B61BB685B680122F9
:105728001A60BB685B680433FA691A60BB687969F8
:105738001846FDF752FDBB681B68FA697849184698
:1057480006F068F8FB685B681B68FA685268043200
:10575800126802FB03F37B61FB685B6801221A6035
:10576800BB685B6804331A68FB685B6804332232E1
:105778001A60FB6879691846FDF72FFD0023FB6165
:105788000BE0FB681A68FB6913446649FA690A4426
:1057980012781A70FB690133FB61FB691A2BF0DD83
:1057A800BB685B685B68FB61FB69002B09DDFB6814
:1057B8001B6803F11B00BB681B68FA69194606F0F1
:1057C80079F80023FB6111E0FB681A68BB685B6825
:1057D80004331968FB690B441B3313445249FA69B3
:1057E8000A4412781A70FB690133FB61FB69062BC6
:1057F800EADDFF224D494E4806F00CF84D4B0022D9
:1058080083F8FF21FB685B6804331B68FF2B06DC09
:10581800BB685B6804331B682233FB6101E0FF232C
:10582800FB61FB69002B06DDFB681B68FA691946FA
:105838003F4806F03FF83F4AFB69134403F580737D
:1058480000221A703648FBF791F90346FB613B6961
:105858005B681B683A6952680432126802FB03F3FA
:105868007B613B695B6801221A603B695B680433B2
:10587800FA691A603B6979691846FDF7AEFC3B691D
:105888001B68FA692649184605F0C4FF3B691846A3
:10589800FEF76CFEB0EE407AF0EE607A1F4B83EDB7
:1058A800507BFDE01D4B002283F8AB221B4B0022EE
:1058B80083F8B022194B072283F8A722FF221B493D
:1058C8001B4805F0A7FF1B4B002283F8FF2100238C
:1058D800FB610DE0184AFB6913441978154AFB6906
:1058E800134403F580730A461A70FB690133FB61A0
:1058F800FB69262BEEDD0F4B002283F82721CFE032
:10590800FF220A490A4805F085FF0A4B002283F85E
:10591800FF21084B002283F80021C1E0F803002092
:10592800980500208CBC0008A8BC000888B90008AD
:10593800E0020020E0010020B0BC00087B681B6882
:10594800002B58D06048FBF711F90346FB61FB6850
:105958005B681B68FA6852680432126802FB03F33A
:105968007B61FB685B6801221A60FB685B68043333
:10597800FA691A60FB6879691846FDF72EFCFB681E
:105988001B68FA695049184605F044FFFB68184639
:10599800FEF750FB0346002B2AD04B48FBF7E6F8EE
:1059A8000346FB613B695B681B683A6952680432CD
:1059B800126802FB03F37B613B695B6801221A6092
:1059C8003B695B680433FA691A603B697969184670
:1059D800FDF703FC3B691B68FA693B49184605F06B
:1059E80019FF3B691846FEF76BFB0346FB7604E09C
:1059F8000023FB7601E00023FB76FB7E002B06D01C
:105A0800324B012283F8AB22FEF7A0FB48E0FF22CD
:105A18002F49304805F0FEFE2B4B002283F8FF216A
:105A2800294B002283F800213AE0284B93F8B03242
:105A3800012B27D9FF222649274805F0EBFE234BE7
:105A4800002283F89F22214B002283F8A0211F4BBC
:105A5800002283F8AB221D4B062283F8A722FF22DF
:105A68001B491C4805F0D6FE174B002283F8FF217E
:105A78007D221A49174805F01DFF134B002283F8B1
:105A88007D210CE0FF221249124805F0C3FE0E4B9F
:105A9800002283F8FF210C4B002283F8002100BF6D
:105AA80007F10C031846FDF7FDFB07F11003184634
:105AB800FDF7F8FB07F108031846FDF7F3FB00BFF5
:105AC8002037BD4680BD00BFE0010020F80300205C
